{
  "contractName": "myNFT",
  "abi": [
    {
      "inputs": [
        {
          "internalType": "address",
          "name": "_marketplaceContract",
          "type": "address"
        }
      ],
      "stateMutability": "nonpayable",
      "type": "constructor"
    },
    {
      "anonymous": false,
      "inputs": [
        {
          "indexed": true,
          "internalType": "address",
          "name": "owner",
          "type": "address"
        },
        {
          "indexed": true,
          "internalType": "address",
          "name": "approved",
          "type": "address"
        },
        {
          "indexed": true,
          "internalType": "uint256",
          "name": "tokenId",
          "type": "uint256"
        }
      ],
      "name": "Approval",
      "type": "event"
    },
    {
      "anonymous": false,
      "inputs": [
        {
          "indexed": true,
          "internalType": "address",
          "name": "owner",
          "type": "address"
        },
        {
          "indexed": true,
          "internalType": "address",
          "name": "operator",
          "type": "address"
        },
        {
          "indexed": false,
          "internalType": "bool",
          "name": "approved",
          "type": "bool"
        }
      ],
      "name": "ApprovalForAll",
      "type": "event"
    },
    {
      "anonymous": false,
      "inputs": [
        {
          "indexed": false,
          "internalType": "uint256",
          "name": "nftID",
          "type": "uint256"
        },
        {
          "indexed": false,
          "internalType": "string",
          "name": "uri",
          "type": "string"
        }
      ],
      "name": "Minted",
      "type": "event"
    },
    {
      "anonymous": false,
      "inputs": [
        {
          "indexed": true,
          "internalType": "address",
          "name": "from",
          "type": "address"
        },
        {
          "indexed": true,
          "internalType": "address",
          "name": "to",
          "type": "address"
        },
        {
          "indexed": true,
          "internalType": "uint256",
          "name": "tokenId",
          "type": "uint256"
        }
      ],
      "name": "Transfer",
      "type": "event"
    },
    {
      "anonymous": false,
      "inputs": [
        {
          "indexed": false,
          "internalType": "uint256",
          "name": "nftId",
          "type": "uint256"
        },
        {
          "indexed": false,
          "internalType": "string",
          "name": "uri",
          "type": "string"
        }
      ],
      "name": "adminMinted",
      "type": "event"
    },
    {
      "inputs": [
        {
          "internalType": "address",
          "name": "to",
          "type": "address"
        },
        {
          "internalType": "uint256",
          "name": "tokenId",
          "type": "uint256"
        }
      ],
      "name": "approve",
      "outputs": [],
      "stateMutability": "nonpayable",
      "type": "function"
    },
    {
      "inputs": [
        {
          "internalType": "address",
          "name": "owner",
          "type": "address"
        }
      ],
      "name": "balanceOf",
      "outputs": [
        {
          "internalType": "uint256",
          "name": "",
          "type": "uint256"
        }
      ],
      "stateMutability": "view",
      "type": "function",
      "constant": true
    },
    {
      "inputs": [
        {
          "internalType": "uint256",
          "name": "tokenId",
          "type": "uint256"
        }
      ],
      "name": "getApproved",
      "outputs": [
        {
          "internalType": "address",
          "name": "",
          "type": "address"
        }
      ],
      "stateMutability": "view",
      "type": "function",
      "constant": true
    },
    {
      "inputs": [
        {
          "internalType": "address",
          "name": "owner",
          "type": "address"
        },
        {
          "internalType": "address",
          "name": "operator",
          "type": "address"
        }
      ],
      "name": "isApprovedForAll",
      "outputs": [
        {
          "internalType": "bool",
          "name": "",
          "type": "bool"
        }
      ],
      "stateMutability": "view",
      "type": "function",
      "constant": true
    },
    {
      "inputs": [],
      "name": "name",
      "outputs": [
        {
          "internalType": "string",
          "name": "",
          "type": "string"
        }
      ],
      "stateMutability": "view",
      "type": "function",
      "constant": true
    },
    {
      "inputs": [
        {
          "internalType": "uint256",
          "name": "tokenId",
          "type": "uint256"
        }
      ],
      "name": "ownerOf",
      "outputs": [
        {
          "internalType": "address",
          "name": "",
          "type": "address"
        }
      ],
      "stateMutability": "view",
      "type": "function",
      "constant": true
    },
    {
      "inputs": [
        {
          "internalType": "address",
          "name": "from",
          "type": "address"
        },
        {
          "internalType": "address",
          "name": "to",
          "type": "address"
        },
        {
          "internalType": "uint256",
          "name": "tokenId",
          "type": "uint256"
        }
      ],
      "name": "safeTransferFrom",
      "outputs": [],
      "stateMutability": "nonpayable",
      "type": "function"
    },
    {
      "inputs": [
        {
          "internalType": "address",
          "name": "from",
          "type": "address"
        },
        {
          "internalType": "address",
          "name": "to",
          "type": "address"
        },
        {
          "internalType": "uint256",
          "name": "tokenId",
          "type": "uint256"
        },
        {
          "internalType": "bytes",
          "name": "data",
          "type": "bytes"
        }
      ],
      "name": "safeTransferFrom",
      "outputs": [],
      "stateMutability": "nonpayable",
      "type": "function"
    },
    {
      "inputs": [
        {
          "internalType": "address",
          "name": "operator",
          "type": "address"
        },
        {
          "internalType": "bool",
          "name": "approved",
          "type": "bool"
        }
      ],
      "name": "setApprovalForAll",
      "outputs": [],
      "stateMutability": "nonpayable",
      "type": "function"
    },
    {
      "inputs": [
        {
          "internalType": "bytes4",
          "name": "interfaceId",
          "type": "bytes4"
        }
      ],
      "name": "supportsInterface",
      "outputs": [
        {
          "internalType": "bool",
          "name": "",
          "type": "bool"
        }
      ],
      "stateMutability": "view",
      "type": "function",
      "constant": true
    },
    {
      "inputs": [],
      "name": "symbol",
      "outputs": [
        {
          "internalType": "string",
          "name": "",
          "type": "string"
        }
      ],
      "stateMutability": "view",
      "type": "function",
      "constant": true
    },
    {
      "inputs": [],
      "name": "tokenCount",
      "outputs": [
        {
          "internalType": "uint256",
          "name": "",
          "type": "uint256"
        }
      ],
      "stateMutability": "view",
      "type": "function",
      "constant": true
    },
    {
      "inputs": [
        {
          "internalType": "uint256",
          "name": "",
          "type": "uint256"
        }
      ],
      "name": "tokenOwner",
      "outputs": [
        {
          "internalType": "address",
          "name": "",
          "type": "address"
        }
      ],
      "stateMutability": "view",
      "type": "function",
      "constant": true
    },
    {
      "inputs": [
        {
          "internalType": "uint256",
          "name": "tokenId",
          "type": "uint256"
        }
      ],
      "name": "tokenURI",
      "outputs": [
        {
          "internalType": "string",
          "name": "",
          "type": "string"
        }
      ],
      "stateMutability": "view",
      "type": "function",
      "constant": true
    },
    {
      "inputs": [
        {
          "internalType": "address",
          "name": "from",
          "type": "address"
        },
        {
          "internalType": "address",
          "name": "to",
          "type": "address"
        },
        {
          "internalType": "uint256",
          "name": "tokenId",
          "type": "uint256"
        }
      ],
      "name": "transferFrom",
      "outputs": [],
      "stateMutability": "nonpayable",
      "type": "function"
    },
    {
      "inputs": [
        {
          "internalType": "string",
          "name": "_tokenURI",
          "type": "string"
        }
      ],
      "name": "tokenURIExists",
      "outputs": [
        {
          "internalType": "bool",
          "name": "",
          "type": "bool"
        }
      ],
      "stateMutability": "view",
      "type": "function",
      "constant": true
    },
    {
      "inputs": [
        {
          "internalType": "string",
          "name": "_tokenURI",
          "type": "string"
        }
      ],
      "name": "Mint",
      "outputs": [
        {
          "internalType": "uint256",
          "name": "",
          "type": "uint256"
        }
      ],
      "stateMutability": "nonpayable",
      "type": "function"
    },
    {
      "inputs": [
        {
          "internalType": "address",
          "name": "_minter",
          "type": "address"
        },
        {
          "internalType": "string",
          "name": "_tokenURI",
          "type": "string"
        }
      ],
      "name": "adminMint",
      "outputs": [
        {
          "internalType": "uint256",
          "name": "",
          "type": "uint256"
        }
      ],
      "stateMutability": "nonpayable",
      "type": "function"
    }
  ],
  "bytecode": "0x60806040523480156200001157600080fd5b50604051620033173803806200331783398181016040528101906200003791906200017b565b6040518060400160405280600781526020017f77626d4e465473000000000000000000000000000000000000000000000000008152506040518060400160405280600381526020017f57424d00000000000000000000000000000000000000000000000000000000008152508160009081620000b4919062000427565b508060019081620000c6919062000427565b50505080600860006101000a81548173ffffffffffffffffffffffffffffffffffffffff021916908373ffffffffffffffffffffffffffffffffffffffff160217905550506200050e565b600080fd5b600073ffffffffffffffffffffffffffffffffffffffff82169050919050565b6000620001438262000116565b9050919050565b620001558162000136565b81146200016157600080fd5b50565b60008151905062000175816200014a565b92915050565b60006020828403121562000194576200019362000111565b5b6000620001a48482850162000164565b91505092915050565b600081519050919050565b7f4e487b7100000000000000000000000000000000000000000000000000000000600052604160045260246000fd5b7f4e487b7100000000000000000000000000000000000000000000000000000000600052602260045260246000fd5b600060028204905060018216806200022f57607f821691505b602082108103620002455762000244620001e7565b5b50919050565b60008190508160005260206000209050919050565b60006020601f8301049050919050565b600082821b905092915050565b600060088302620002af7fffffffffffffffffffffffffffffffffffffffffffffffffffffffffffffffff8262000270565b620002bb868362000270565b95508019841693508086168417925050509392505050565b6000819050919050565b6000819050919050565b60006200030862000302620002fc84620002d3565b620002dd565b620002d3565b9050919050565b6000819050919050565b6200032483620002e7565b6200033c62000333826200030f565b8484546200027d565b825550505050565b600090565b6200035362000344565b6200036081848462000319565b505050565b5b8181101562000388576200037c60008262000349565b60018101905062000366565b5050565b601f821115620003d757620003a1816200024b565b620003ac8462000260565b81016020851015620003bc578190505b620003d4620003cb8562000260565b83018262000365565b50505b505050565b600082821c905092915050565b6000620003fc60001984600802620003dc565b1980831691505092915050565b6000620004178383620003e9565b9150826002028217905092915050565b6200043282620001ad565b67ffffffffffffffff8111156200044e576200044d620001b8565b5b6200045a825462000216565b620004678282856200038c565b600060209050601f8311600181146200049f57600084156200048a578287015190505b62000496858262000409565b86555062000506565b601f198416620004af866200024b565b60005b82811015620004d957848901518255600182019150602085019450602081019050620004b2565b86831015620004f95784890151620004f5601f891682620003e9565b8355505b6001600288020188555050505b505050505050565b612df9806200051e6000396000f3fe608060405234801561001057600080fd5b50600436106101165760003560e01c80636352211e116100a2578063a22cb46511610071578063a22cb46514610319578063b88d4fde14610335578063c5e1d73114610351578063c87b56dd14610381578063e985e9c5146103b157610116565b80636352211e1461027d57806370a08231146102ad57806395d89b41146102dd5780639f181b5e146102fb57610116565b80631caaa487116100e95780631caaa487146101b557806323b872dd146101e557806342842e0e1461020157806343d32ae71461021d5780635919c74b1461024d57610116565b806301ffc9a71461011b57806306fdde031461014b578063081812fc14610169578063095ea7b314610199575b600080fd5b61013560048036038101906101309190611a7c565b6103e1565b6040516101429190611ac4565b60405180910390f35b6101536104c3565b6040516101609190611b6f565b60405180910390f35b610183600480360381019061017e9190611bc7565b610555565b6040516101909190611c35565b60405180910390f35b6101b360048036038101906101ae9190611c7c565b61059b565b005b6101cf60048036038101906101ca9190611bc7565b6106b2565b6040516101dc9190611c35565b60405180910390f35b6101ff60048036038101906101fa9190611cbc565b6106e5565b005b61021b60048036038101906102169190611cbc565b610745565b005b61023760048036038101906102329190611e44565b610765565b6040516102449190611ac4565b60405180910390f35b61026760048036038101906102629190611e8d565b6107a1565b6040516102749190611ef8565b60405180910390f35b61029760048036038101906102929190611bc7565b610850565b6040516102a49190611c35565b60405180910390f35b6102c760048036038101906102c29190611f13565b610901565b6040516102d49190611ef8565b60405180910390f35b6102e56109b8565b6040516102f29190611b6f565b60405180910390f35b610303610a4a565b6040516103109190611ef8565b60405180910390f35b610333600480360381019061032e9190611f6c565b610a50565b005b61034f600480360381019061034a919061204d565b610a66565b005b61036b60048036038101906103669190611e44565b610ac8565b6040516103789190611ef8565b60405180910390f35b61039b60048036038101906103969190611bc7565b610bec565b6040516103a89190611b6f565b60405180910390f35b6103cb60048036038101906103c691906120d0565b610cfe565b6040516103d89190611ac4565b60405180910390f35b60007f80ac58cd000000000000000000000000000000000000000000000000000000007bffffffffffffffffffffffffffffffffffffffffffffffffffffffff1916827bffffffffffffffffffffffffffffffffffffffffffffffffffffffff191614806104ac57507f5b5e139f000000000000000000000000000000000000000000000000000000007bffffffffffffffffffffffffffffffffffffffffffffffffffffffff1916827bffffffffffffffffffffffffffffffffffffffffffffffffffffffff1916145b806104bc57506104bb82610d92565b5b9050919050565b6060600080546104d29061213f565b80601f01602080910402602001604051908101604052809291908181526020018280546104fe9061213f565b801561054b5780601f106105205761010080835404028352916020019161054b565b820191906000526020600020905b81548152906001019060200180831161052e57829003601f168201915b5050505050905090565b600061056082610dfc565b6004600083815260200190815260200160002060009054906101000a900473ffffffffffffffffffffffffffffffffffffffff169050919050565b60006105a682610850565b90508073ffffffffffffffffffffffffffffffffffffffff168373ffffffffffffffffffffffffffffffffffffffff1603610616576040517f08c379a000000000000000000000000000000000000000000000000000000000815260040161060d906121e2565b60405180910390fd5b8073ffffffffffffffffffffffffffffffffffffffff16610635610e47565b73ffffffffffffffffffffffffffffffffffffffff16148061066457506106638161065e610e47565b610cfe565b5b6106a3576040517f08c379a000000000000000000000000000000000000000000000000000000000815260040161069a90612274565b60405180910390fd5b6106ad8383610e4f565b505050565b60096020528060005260406000206000915054906101000a900473ffffffffffffffffffffffffffffffffffffffff1681565b6106f66106f0610e47565b82610f08565b610735576040517f08c379a000000000000000000000000000000000000000000000000000000000815260040161072c90612306565b60405180910390fd5b610740838383610f9d565b505050565b61076083838360405180602001604052806000815250610a66565b505050565b600060011515600a8360405161077b9190612362565b908152602001604051809103902060009054906101000a900460ff161515149050919050565b6000600760008154809291906107b6906123a8565b91905055506107c783600754611203565b6107d3600754836113dc565b6001600a836040516107e59190612362565b908152602001604051809103902060006101000a81548160ff0219169083151502179055507fbce45f36bf51b1433df847f58bc4d0c82383d6c3355ba0445024fcce97fd30f76007548360405161083d9291906123f0565b60405180910390a1600754905092915050565b6000806002600084815260200190815260200160002060009054906101000a900473ffffffffffffffffffffffffffffffffffffffff169050600073ffffffffffffffffffffffffffffffffffffffff168173ffffffffffffffffffffffffffffffffffffffff16036108f8576040517f08c379a00000000000000000000000000000000000000000000000000000000081526004016108ef9061246c565b60405180910390fd5b80915050919050565b60008073ffffffffffffffffffffffffffffffffffffffff168273ffffffffffffffffffffffffffffffffffffffff1603610971576040517f08c379a0000000000000000000000000000000000000000000000000000000008152600401610968906124fe565b60405180910390fd5b600360008373ffffffffffffffffffffffffffffffffffffffff1673ffffffffffffffffffffffffffffffffffffffff168152602001908152602001600020549050919050565b6060600180546109c79061213f565b80601f01602080910402602001604051908101604052809291908181526020018280546109f39061213f565b8015610a405780601f10610a1557610100808354040283529160200191610a40565b820191906000526020600020905b815481529060010190602001808311610a2357829003601f168201915b5050505050905090565b60075481565b610a62610a5b610e47565b8383611449565b5050565b610a77610a71610e47565b83610f08565b610ab6576040517f08c379a0000000000000000000000000000000000000000000000000000000008152600401610aad90612306565b60405180910390fd5b610ac2848484846115b5565b50505050565b6000610ad382610765565b15610b13576040517f08c379a0000000000000000000000000000000000000000000000000000000008152600401610b0a9061256a565b60405180910390fd5b60076000815480929190610b26906123a8565b919050555060006007549050610b3c3382611203565b610b4681846113dc565b6001600a84604051610b589190612362565b908152602001604051809103902060006101000a81548160ff021916908315150217905550610baa600860009054906101000a900473ffffffffffffffffffffffffffffffffffffffff166001610a50565b7fadef11a3979b8ceb0573eb6ef0678134a09c23a0d94e5ea47cd18ac3a9fc01948184604051610bdb9291906123f0565b60405180910390a180915050919050565b6060610bf782610dfc565b6000600660008481526020019081526020016000208054610c179061213f565b80601f0160208091040260200160405190810160405280929190818152602001828054610c439061213f565b8015610c905780601f10610c6557610100808354040283529160200191610c90565b820191906000526020600020905b815481529060010190602001808311610c7357829003601f168201915b505050505090506000610ca1611611565b90506000815103610cb6578192505050610cf9565b600082511115610ceb578082604051602001610cd392919061258a565b60405160208183030381529060405292505050610cf9565b610cf484611628565b925050505b919050565b6000600560008473ffffffffffffffffffffffffffffffffffffffff1673ffffffffffffffffffffffffffffffffffffffff16815260200190815260200160002060008373ffffffffffffffffffffffffffffffffffffffff1673ffffffffffffffffffffffffffffffffffffffff16815260200190815260200160002060009054906101000a900460ff16905092915050565b60007f01ffc9a7000000000000000000000000000000000000000000000000000000007bffffffffffffffffffffffffffffffffffffffffffffffffffffffff1916827bffffffffffffffffffffffffffffffffffffffffffffffffffffffff1916149050919050565b610e0581611690565b610e44576040517f08c379a0000000000000000000000000000000000000000000000000000000008152600401610e3b9061246c565b60405180910390fd5b50565b600033905090565b816004600083815260200190815260200160002060006101000a81548173ffffffffffffffffffffffffffffffffffffffff021916908373ffffffffffffffffffffffffffffffffffffffff160217905550808273ffffffffffffffffffffffffffffffffffffffff16610ec283610850565b73ffffffffffffffffffffffffffffffffffffffff167f8c5be1e5ebec7d5bd14f71427d1e84f3dd0314c0f7b2291e5b200ac8c7c3b92560405160405180910390a45050565b600080610f1483610850565b90508073ffffffffffffffffffffffffffffffffffffffff168473ffffffffffffffffffffffffffffffffffffffff161480610f565750610f558185610cfe565b5b80610f9457508373ffffffffffffffffffffffffffffffffffffffff16610f7c84610555565b73ffffffffffffffffffffffffffffffffffffffff16145b91505092915050565b8273ffffffffffffffffffffffffffffffffffffffff16610fbd82610850565b73ffffffffffffffffffffffffffffffffffffffff1614611013576040517f08c379a000000000000000000000000000000000000000000000000000000000815260040161100a90612620565b60405180910390fd5b600073ffffffffffffffffffffffffffffffffffffffff168273ffffffffffffffffffffffffffffffffffffffff1603611082576040517f08c379a0000000000000000000000000000000000000000000000000000000008152600401611079906126b2565b60405180910390fd5b61108d8383836116fc565b611098600082610e4f565b6001600360008573ffffffffffffffffffffffffffffffffffffffff1673ffffffffffffffffffffffffffffffffffffffff16815260200190815260200160002060008282546110e891906126d2565b925050819055506001600360008473ffffffffffffffffffffffffffffffffffffffff1673ffffffffffffffffffffffffffffffffffffffff168152602001908152602001600020600082825461113f9190612706565b92505081905550816002600083815260200190815260200160002060006101000a81548173ffffffffffffffffffffffffffffffffffffffff021916908373ffffffffffffffffffffffffffffffffffffffff160217905550808273ffffffffffffffffffffffffffffffffffffffff168473ffffffffffffffffffffffffffffffffffffffff167fddf252ad1be2c89b69c2b068fc378daa952ba7f163c4a11628f55a4df523b3ef60405160405180910390a46111fe838383611701565b505050565b600073ffffffffffffffffffffffffffffffffffffffff168273ffffffffffffffffffffffffffffffffffffffff1603611272576040517f08c379a000000000000000000000000000000000000000000000000000000000815260040161126990612786565b60405180910390fd5b61127b81611690565b156112bb576040517f08c379a00000000000000000000000000000000000000000000000000000000081526004016112b2906127f2565b60405180910390fd5b6112c7600083836116fc565b6001600360008473ffffffffffffffffffffffffffffffffffffffff1673ffffffffffffffffffffffffffffffffffffffff16815260200190815260200160002060008282546113179190612706565b92505081905550816002600083815260200190815260200160002060006101000a81548173ffffffffffffffffffffffffffffffffffffffff021916908373ffffffffffffffffffffffffffffffffffffffff160217905550808273ffffffffffffffffffffffffffffffffffffffff16600073ffffffffffffffffffffffffffffffffffffffff167fddf252ad1be2c89b69c2b068fc378daa952ba7f163c4a11628f55a4df523b3ef60405160405180910390a46113d860008383611701565b5050565b6113e582611690565b611424576040517f08c379a000000000000000000000000000000000000000000000000000000000815260040161141b90612884565b60405180910390fd5b806006600084815260200190815260200160002090816114449190612a50565b505050565b8173ffffffffffffffffffffffffffffffffffffffff168373ffffffffffffffffffffffffffffffffffffffff16036114b7576040517f08c379a00000000000000000000000000000000000000000000000000000000081526004016114ae90612b6e565b60405180910390fd5b80600560008573ffffffffffffffffffffffffffffffffffffffff1673ffffffffffffffffffffffffffffffffffffffff16815260200190815260200160002060008473ffffffffffffffffffffffffffffffffffffffff1673ffffffffffffffffffffffffffffffffffffffff16815260200190815260200160002060006101000a81548160ff0219169083151502179055508173ffffffffffffffffffffffffffffffffffffffff168373ffffffffffffffffffffffffffffffffffffffff167f17307eab39ab6107e8899845ad3d59bd9653f200f220920489ca2b5937696c31836040516115a89190611ac4565b60405180910390a3505050565b6115c0848484610f9d565b6115cc84848484611706565b61160b576040517f08c379a000000000000000000000000000000000000000000000000000000000815260040161160290612c00565b60405180910390fd5b50505050565b606060405180602001604052806000815250905090565b606061163382610dfc565b600061163d611611565b9050600081511161165d5760405180602001604052806000815250611688565b806116678461188d565b60405160200161167892919061258a565b6040516020818303038152906040525b915050919050565b60008073ffffffffffffffffffffffffffffffffffffffff166002600084815260200190815260200160002060009054906101000a900473ffffffffffffffffffffffffffffffffffffffff1673ffffffffffffffffffffffffffffffffffffffff1614159050919050565b505050565b505050565b60006117278473ffffffffffffffffffffffffffffffffffffffff166119ed565b15611880578373ffffffffffffffffffffffffffffffffffffffff1663150b7a02611750610e47565b8786866040518563ffffffff1660e01b81526004016117729493929190612c75565b6020604051808303816000875af19250505080156117ae57506040513d601f19601f820116820180604052508101906117ab9190612cd6565b60015b611830573d80600081146117de576040519150601f19603f3d011682016040523d82523d6000602084013e6117e3565b606091505b506000815103611828576040517f08c379a000000000000000000000000000000000000000000000000000000000815260040161181f90612c00565b60405180910390fd5b805181602001fd5b63150b7a0260e01b7bffffffffffffffffffffffffffffffffffffffffffffffffffffffff1916817bffffffffffffffffffffffffffffffffffffffffffffffffffffffff191614915050611885565b600190505b949350505050565b6060600082036118d4576040518060400160405280600181526020017f300000000000000000000000000000000000000000000000000000000000000081525090506119e8565b600082905060005b600082146119065780806118ef906123a8565b915050600a826118ff9190612d32565b91506118dc565b60008167ffffffffffffffff81111561192257611921611d19565b5b6040519080825280601f01601f1916602001820160405280156119545781602001600182028036833780820191505090505b5090505b600085146119e15760018261196d91906126d2565b9150600a8561197c9190612d63565b60306119889190612706565b60f81b81838151811061199e5761199d612d94565b5b60200101907effffffffffffffffffffffffffffffffffffffffffffffffffffffffffffff1916908160001a905350600a856119da9190612d32565b9450611958565b8093505050505b919050565b6000808273ffffffffffffffffffffffffffffffffffffffff163b119050919050565b6000604051905090565b600080fd5b600080fd5b60007fffffffff0000000000000000000000000000000000000000000000000000000082169050919050565b611a5981611a24565b8114611a6457600080fd5b50565b600081359050611a7681611a50565b92915050565b600060208284031215611a9257611a91611a1a565b5b6000611aa084828501611a67565b91505092915050565b60008115159050919050565b611abe81611aa9565b82525050565b6000602082019050611ad96000830184611ab5565b92915050565b600081519050919050565b600082825260208201905092915050565b60005b83811015611b19578082015181840152602081019050611afe565b60008484015250505050565b6000601f19601f8301169050919050565b6000611b4182611adf565b611b4b8185611aea565b9350611b5b818560208601611afb565b611b6481611b25565b840191505092915050565b60006020820190508181036000830152611b898184611b36565b905092915050565b6000819050919050565b611ba481611b91565b8114611baf57600080fd5b50565b600081359050611bc181611b9b565b92915050565b600060208284031215611bdd57611bdc611a1a565b5b6000611beb84828501611bb2565b91505092915050565b600073ffffffffffffffffffffffffffffffffffffffff82169050919050565b6000611c1f82611bf4565b9050919050565b611c2f81611c14565b82525050565b6000602082019050611c4a6000830184611c26565b92915050565b611c5981611c14565b8114611c6457600080fd5b50565b600081359050611c7681611c50565b92915050565b60008060408385031215611c9357611c92611a1a565b5b6000611ca185828601611c67565b9250506020611cb285828601611bb2565b9150509250929050565b600080600060608486031215611cd557611cd4611a1a565b5b6000611ce386828701611c67565b9350506020611cf486828701611c67565b9250506040611d0586828701611bb2565b9150509250925092565b600080fd5b600080fd5b7f4e487b7100000000000000000000000000000000000000000000000000000000600052604160045260246000fd5b611d5182611b25565b810181811067ffffffffffffffff82111715611d7057611d6f611d19565b5b80604052505050565b6000611d83611a10565b9050611d8f8282611d48565b919050565b600067ffffffffffffffff821115611daf57611dae611d19565b5b611db882611b25565b9050602081019050919050565b82818337600083830152505050565b6000611de7611de284611d94565b611d79565b905082815260208101848484011115611e0357611e02611d14565b5b611e0e848285611dc5565b509392505050565b600082601f830112611e2b57611e2a611d0f565b5b8135611e3b848260208601611dd4565b91505092915050565b600060208284031215611e5a57611e59611a1a565b5b600082013567ffffffffffffffff811115611e7857611e77611a1f565b5b611e8484828501611e16565b91505092915050565b60008060408385031215611ea457611ea3611a1a565b5b6000611eb285828601611c67565b925050602083013567ffffffffffffffff811115611ed357611ed2611a1f565b5b611edf85828601611e16565b9150509250929050565b611ef281611b91565b82525050565b6000602082019050611f0d6000830184611ee9565b92915050565b600060208284031215611f2957611f28611a1a565b5b6000611f3784828501611c67565b91505092915050565b611f4981611aa9565b8114611f5457600080fd5b50565b600081359050611f6681611f40565b92915050565b60008060408385031215611f8357611f82611a1a565b5b6000611f9185828601611c67565b9250506020611fa285828601611f57565b9150509250929050565b600067ffffffffffffffff821115611fc757611fc6611d19565b5b611fd082611b25565b9050602081019050919050565b6000611ff0611feb84611fac565b611d79565b90508281526020810184848401111561200c5761200b611d14565b5b612017848285611dc5565b509392505050565b600082601f83011261203457612033611d0f565b5b8135612044848260208601611fdd565b91505092915050565b6000806000806080858703121561206757612066611a1a565b5b600061207587828801611c67565b945050602061208687828801611c67565b935050604061209787828801611bb2565b925050606085013567ffffffffffffffff8111156120b8576120b7611a1f565b5b6120c48782880161201f565b91505092959194509250565b600080604083850312156120e7576120e6611a1a565b5b60006120f585828601611c67565b925050602061210685828601611c67565b9150509250929050565b7f4e487b7100000000000000000000000000000000000000000000000000000000600052602260045260246000fd5b6000600282049050600182168061215757607f821691505b60208210810361216a57612169612110565b5b50919050565b7f4552433732313a20617070726f76616c20746f2063757272656e74206f776e6560008201527f7200000000000000000000000000000000000000000000000000000000000000602082015250565b60006121cc602183611aea565b91506121d782612170565b604082019050919050565b600060208201905081810360008301526121fb816121bf565b9050919050565b7f4552433732313a20617070726f76652063616c6c6572206973206e6f7420746f60008201527f6b656e206f776e6572206e6f7220617070726f76656420666f7220616c6c0000602082015250565b600061225e603e83611aea565b915061226982612202565b604082019050919050565b6000602082019050818103600083015261228d81612251565b9050919050565b7f4552433732313a2063616c6c6572206973206e6f7420746f6b656e206f776e6560008201527f72206e6f7220617070726f766564000000000000000000000000000000000000602082015250565b60006122f0602e83611aea565b91506122fb82612294565b604082019050919050565b6000602082019050818103600083015261231f816122e3565b9050919050565b600081905092915050565b600061233c82611adf565b6123468185612326565b9350612356818560208601611afb565b80840191505092915050565b600061236e8284612331565b915081905092915050565b7f4e487b7100000000000000000000000000000000000000000000000000000000600052601160045260246000fd5b60006123b382611b91565b91507fffffffffffffffffffffffffffffffffffffffffffffffffffffffffffffffff82036123e5576123e4612379565b5b600182019050919050565b60006040820190506124056000830185611ee9565b81810360208301526124178184611b36565b90509392505050565b7f4552433732313a20696e76616c696420746f6b656e2049440000000000000000600082015250565b6000612456601883611aea565b915061246182612420565b602082019050919050565b6000602082019050818103600083015261248581612449565b9050919050565b7f4552433732313a2061646472657373207a65726f206973206e6f74206120766160008201527f6c6964206f776e65720000000000000000000000000000000000000000000000602082015250565b60006124e8602983611aea565b91506124f38261248c565b604082019050919050565b60006020820190508181036000830152612517816124db565b9050919050565b7f546f6b656e2055524920616c7265616479206578697374730000000000000000600082015250565b6000612554601883611aea565b915061255f8261251e565b602082019050919050565b6000602082019050818103600083015261258381612547565b9050919050565b60006125968285612331565b91506125a28284612331565b91508190509392505050565b7f4552433732313a207472616e736665722066726f6d20696e636f72726563742060008201527f6f776e6572000000000000000000000000000000000000000000000000000000602082015250565b600061260a602583611aea565b9150612615826125ae565b604082019050919050565b60006020820190508181036000830152612639816125fd565b9050919050565b7f4552433732313a207472616e7366657220746f20746865207a65726f2061646460008201527f7265737300000000000000000000000000000000000000000000000000000000602082015250565b600061269c602483611aea565b91506126a782612640565b604082019050919050565b600060208201905081810360008301526126cb8161268f565b9050919050565b60006126dd82611b91565b91506126e883611b91565b9250828203905081811115612700576126ff612379565b5b92915050565b600061271182611b91565b915061271c83611b91565b925082820190508082111561273457612733612379565b5b92915050565b7f4552433732313a206d696e7420746f20746865207a65726f2061646472657373600082015250565b6000612770602083611aea565b915061277b8261273a565b602082019050919050565b6000602082019050818103600083015261279f81612763565b9050919050565b7f4552433732313a20746f6b656e20616c7265616479206d696e74656400000000600082015250565b60006127dc601c83611aea565b91506127e7826127a6565b602082019050919050565b6000602082019050818103600083015261280b816127cf565b9050919050565b7f45524337323155524953746f726167653a2055524920736574206f66206e6f6e60008201527f6578697374656e7420746f6b656e000000000000000000000000000000000000602082015250565b600061286e602e83611aea565b915061287982612812565b604082019050919050565b6000602082019050818103600083015261289d81612861565b9050919050565b60008190508160005260206000209050919050565b60006020601f8301049050919050565b600082821b905092915050565b6000600883026129067fffffffffffffffffffffffffffffffffffffffffffffffffffffffffffffffff826128c9565b61291086836128c9565b95508019841693508086168417925050509392505050565b6000819050919050565b600061294d61294861294384611b91565b612928565b611b91565b9050919050565b6000819050919050565b61296783612932565b61297b61297382612954565b8484546128d6565b825550505050565b600090565b612990612983565b61299b81848461295e565b505050565b5b818110156129bf576129b4600082612988565b6001810190506129a1565b5050565b601f821115612a04576129d5816128a4565b6129de846128b9565b810160208510156129ed578190505b612a016129f9856128b9565b8301826129a0565b50505b505050565b600082821c905092915050565b6000612a2760001984600802612a09565b1980831691505092915050565b6000612a408383612a16565b9150826002028217905092915050565b612a5982611adf565b67ffffffffffffffff811115612a7257612a71611d19565b5b612a7c825461213f565b612a878282856129c3565b600060209050601f831160018114612aba5760008415612aa8578287015190505b612ab28582612a34565b865550612b1a565b601f198416612ac8866128a4565b60005b82811015612af057848901518255600182019150602085019450602081019050612acb565b86831015612b0d5784890151612b09601f891682612a16565b8355505b6001600288020188555050505b505050505050565b7f4552433732313a20617070726f766520746f2063616c6c657200000000000000600082015250565b6000612b58601983611aea565b9150612b6382612b22565b602082019050919050565b60006020820190508181036000830152612b8781612b4b565b9050919050565b7f4552433732313a207472616e7366657220746f206e6f6e20455243373231526560008201527f63656976657220696d706c656d656e7465720000000000000000000000000000602082015250565b6000612bea603283611aea565b9150612bf582612b8e565b604082019050919050565b60006020820190508181036000830152612c1981612bdd565b9050919050565b600081519050919050565b600082825260208201905092915050565b6000612c4782612c20565b612c518185612c2b565b9350612c61818560208601611afb565b612c6a81611b25565b840191505092915050565b6000608082019050612c8a6000830187611c26565b612c976020830186611c26565b612ca46040830185611ee9565b8181036060830152612cb68184612c3c565b905095945050505050565b600081519050612cd081611a50565b92915050565b600060208284031215612cec57612ceb611a1a565b5b6000612cfa84828501612cc1565b91505092915050565b7f4e487b7100000000000000000000000000000000000000000000000000000000600052601260045260246000fd5b6000612d3d82611b91565b9150612d4883611b91565b925082612d5857612d57612d03565b5b828204905092915050565b6000612d6e82611b91565b9150612d7983611b91565b925082612d8957612d88612d03565b5b828206905092915050565b7f4e487b7100000000000000000000000000000000000000000000000000000000600052603260045260246000fdfea264697066735822122038fce2d4405d1ab72f6f489c9887beed4a9e7b7982844836ff220da91949d90364736f6c63430008100033",
  "immutableReferences": {},
  "source": "//SPDX-License-Identifier: MIT\npragma solidity >= 0.6.0 < 0.9.0;\n\nimport \"@openzeppelin/contracts/access/Ownable.sol\";\nimport \"@openzeppelin/contracts/token/ERC721/extensions/ERC721URIStorage.sol\";\n\ncontract myNFT is ERC721URIStorage {\n\n    uint256 public tokenCount;\n    address marketplaceContract;\n    \n    mapping(uint => address) public tokenOwner;\n    mapping(string => bool) private _usedTokenURIs;\n   \n    //mint nft event\n    event Minted(\n        uint256 nftID, \n        string uri\n    );\n\n    //admin mint nft event\n    event adminMinted(\n        uint256 nftId,\n        string uri\n    );\n\n    constructor(address _marketplaceContract) ERC721(\"wbmNFTs\", \"WBM\") {\n        marketplaceContract = _marketplaceContract;\n    }\n\n    function tokenURIExists(string memory _tokenURI) public view returns (bool) {\n    return _usedTokenURIs[_tokenURI] == true;\n   }\n    \n    //Allows to Mint nft tokens\n\n    function Mint(string memory _tokenURI) public returns(uint256) {\n        require(!tokenURIExists(_tokenURI), \"Token URI already exists\");\n        tokenCount++;\n        uint256 _tokenId = tokenCount;\n        _mint(msg.sender, _tokenId);\n        _setTokenURI(_tokenId, _tokenURI);\n        _usedTokenURIs[_tokenURI] = true;\n        setApprovalForAll(marketplaceContract, true);\n\n       \n        emit Minted(_tokenId, _tokenURI);\n        return _tokenId;  \n    }\n    // Allows to mint Nft tokens using minter address\n    function adminMint(address _minter, string memory _tokenURI) external returns(uint256) {\n        tokenCount++;\n\n        _mint(_minter, tokenCount);\n        _setTokenURI(tokenCount, _tokenURI);\n        _usedTokenURIs[_tokenURI] = true;\n        \n        emit adminMinted(tokenCount, _tokenURI);\n        return tokenCount;\n    }\n}\n",
  "sourcePath": "/home/alekhya/Desktop/nft-demo/contracts/myNFT.sol",
  "compiler": {
    "name": "solc",
    "version": "0.8.16+commit.07a7930e.Emscripten.clang"
  },
  "schemaVersion": "3.4.9",
  "updatedAt": "2022-10-18T08:34:11.530Z",
  "networkType": "ethereum",
  "devdoc": {
    "kind": "dev",
    "methods": {
      "approve(address,uint256)": {
        "details": "See {IERC721-approve}."
      },
      "balanceOf(address)": {
        "details": "See {IERC721-balanceOf}."
      },
      "getApproved(uint256)": {
        "details": "See {IERC721-getApproved}."
      },
      "isApprovedForAll(address,address)": {
        "details": "See {IERC721-isApprovedForAll}."
      },
      "name()": {
        "details": "See {IERC721Metadata-name}."
      },
      "ownerOf(uint256)": {
        "details": "See {IERC721-ownerOf}."
      },
      "safeTransferFrom(address,address,uint256)": {
        "details": "See {IERC721-safeTransferFrom}."
      },
      "safeTransferFrom(address,address,uint256,bytes)": {
        "details": "See {IERC721-safeTransferFrom}."
      },
      "setApprovalForAll(address,bool)": {
        "details": "See {IERC721-setApprovalForAll}."
      },
      "supportsInterface(bytes4)": {
        "details": "See {IERC165-supportsInterface}."
      },
      "symbol()": {
        "details": "See {IERC721Metadata-symbol}."
      },
      "tokenURI(uint256)": {
        "details": "See {IERC721Metadata-tokenURI}."
      },
      "transferFrom(address,address,uint256)": {
        "details": "See {IERC721-transferFrom}."
      }
    },
    "version": 1
  },
  "userdoc": {
    "kind": "user",
    "methods": {},
    "version": 1
  }
}