{
  "contractName": "NftMarketplace",
  "abi": [
    {
      "inputs": [],
      "stateMutability": "nonpayable",
      "type": "constructor"
    },
    {
      "anonymous": false,
      "inputs": [
        {
          "indexed": false,
          "internalType": "address",
          "name": "_creator",
          "type": "address"
        },
        {
          "indexed": false,
          "internalType": "uint256",
          "name": "amount",
          "type": "uint256"
        }
      ],
      "name": "Auctionbid",
      "type": "event"
    },
    {
      "anonymous": false,
      "inputs": [
        {
          "indexed": false,
          "internalType": "uint256",
          "name": "tokenIdHash",
          "type": "uint256"
        },
        {
          "indexed": false,
          "internalType": "address",
          "name": "bidder",
          "type": "address"
        },
        {
          "indexed": false,
          "internalType": "uint256",
          "name": "amount",
          "type": "uint256"
        }
      ],
      "name": "BidWithdraw",
      "type": "event"
    },
    {
      "anonymous": false,
      "inputs": [
        {
          "indexed": false,
          "internalType": "address",
          "name": "nftContract",
          "type": "address"
        },
        {
          "indexed": false,
          "internalType": "uint256",
          "name": "tokenId",
          "type": "uint256"
        },
        {
          "indexed": false,
          "internalType": "address",
          "name": "seller",
          "type": "address"
        },
        {
          "indexed": false,
          "internalType": "address",
          "name": "owner",
          "type": "address"
        },
        {
          "indexed": false,
          "internalType": "uint256",
          "name": "price",
          "type": "uint256"
        }
      ],
      "name": "NFTListed",
      "type": "event"
    },
    {
      "anonymous": false,
      "inputs": [
        {
          "indexed": false,
          "internalType": "address",
          "name": "nftContract",
          "type": "address"
        },
        {
          "indexed": false,
          "internalType": "uint256",
          "name": "tokenId",
          "type": "uint256"
        },
        {
          "indexed": false,
          "internalType": "address",
          "name": "buyer",
          "type": "address"
        },
        {
          "indexed": false,
          "internalType": "address",
          "name": "seller",
          "type": "address"
        },
        {
          "indexed": false,
          "internalType": "uint256",
          "name": "price",
          "type": "uint256"
        },
        {
          "indexed": false,
          "internalType": "uint256",
          "name": "PayToSellerOfNft",
          "type": "uint256"
        },
        {
          "indexed": false,
          "internalType": "uint256",
          "name": "adminRoyalty",
          "type": "uint256"
        }
      ],
      "name": "Nftbought",
      "type": "event"
    },
    {
      "anonymous": false,
      "inputs": [
        {
          "indexed": true,
          "internalType": "address",
          "name": "previousOwner",
          "type": "address"
        },
        {
          "indexed": true,
          "internalType": "address",
          "name": "newOwner",
          "type": "address"
        }
      ],
      "name": "OwnershipTransferred",
      "type": "event"
    },
    {
      "anonymous": false,
      "inputs": [
        {
          "indexed": false,
          "internalType": "address",
          "name": "highestBid",
          "type": "address"
        },
        {
          "indexed": false,
          "internalType": "uint256",
          "name": "highestbidder",
          "type": "uint256"
        },
        {
          "indexed": false,
          "internalType": "uint256",
          "name": "bidPayToSellerOfNft",
          "type": "uint256"
        },
        {
          "indexed": false,
          "internalType": "uint256",
          "name": "bidAdminRoyalty",
          "type": "uint256"
        }
      ],
      "name": "bidEnd",
      "type": "event"
    },
    {
      "inputs": [],
      "name": "nfts",
      "outputs": [
        {
          "internalType": "contract ERC721",
          "name": "",
          "type": "address"
        }
      ],
      "stateMutability": "view",
      "type": "function",
      "constant": true
    },
    {
      "inputs": [],
      "name": "owner",
      "outputs": [
        {
          "internalType": "address",
          "name": "",
          "type": "address"
        }
      ],
      "stateMutability": "view",
      "type": "function",
      "constant": true
    },
    {
      "inputs": [],
      "name": "renounceOwnership",
      "outputs": [],
      "stateMutability": "nonpayable",
      "type": "function"
    },
    {
      "inputs": [
        {
          "internalType": "address",
          "name": "newOwner",
          "type": "address"
        }
      ],
      "name": "transferOwnership",
      "outputs": [],
      "stateMutability": "nonpayable",
      "type": "function"
    },
    {
      "inputs": [
        {
          "internalType": "address",
          "name": "_nftContract",
          "type": "address"
        },
        {
          "internalType": "uint256",
          "name": "_tokenId",
          "type": "uint256"
        },
        {
          "internalType": "uint256",
          "name": "_price",
          "type": "uint256"
        },
        {
          "internalType": "bool",
          "name": "isDirectBuy",
          "type": "bool"
        }
      ],
      "name": "listNft",
      "outputs": [],
      "stateMutability": "payable",
      "type": "function",
      "payable": true
    },
    {
      "inputs": [
        {
          "internalType": "uint256",
          "name": "_tokenId",
          "type": "uint256"
        },
        {
          "internalType": "address",
          "name": "_nftContract",
          "type": "address"
        }
      ],
      "name": "directBuyNft",
      "outputs": [],
      "stateMutability": "payable",
      "type": "function",
      "payable": true
    },
    {
      "inputs": [
        {
          "internalType": "address",
          "name": "_nftContract",
          "type": "address"
        },
        {
          "internalType": "uint256",
          "name": "_tokenId",
          "type": "uint256"
        },
        {
          "internalType": "uint256",
          "name": "_price",
          "type": "uint256"
        }
      ],
      "name": "resellNft",
      "outputs": [],
      "stateMutability": "payable",
      "type": "function",
      "payable": true
    },
    {
      "inputs": [
        {
          "internalType": "uint256",
          "name": "_tokenId",
          "type": "uint256"
        }
      ],
      "name": "bid",
      "outputs": [],
      "stateMutability": "payable",
      "type": "function",
      "payable": true
    },
    {
      "inputs": [
        {
          "internalType": "uint256",
          "name": "_tokenId",
          "type": "uint256"
        }
      ],
      "name": "withdrawBidRefunds",
      "outputs": [],
      "stateMutability": "nonpayable",
      "type": "function"
    },
    {
      "inputs": [
        {
          "internalType": "address",
          "name": "_nftContract",
          "type": "address"
        },
        {
          "internalType": "uint256",
          "name": "_tokenId",
          "type": "uint256"
        }
      ],
      "name": "claimBid",
      "outputs": [],
      "stateMutability": "nonpayable",
      "type": "function"
    }
  ],
  "bytecode": "0x60806040523480156200001157600080fd5b5060016000819055506200003a6200002e6200008160201b60201c565b6200008960201b60201c565b33600360006101000a81548173ffffffffffffffffffffffffffffffffffffffff021916908373ffffffffffffffffffffffffffffffffffffffff1602179055506200014f565b600033905090565b6000600160009054906101000a900473ffffffffffffffffffffffffffffffffffffffff16905081600160006101000a81548173ffffffffffffffffffffffffffffffffffffffff021916908373ffffffffffffffffffffffffffffffffffffffff1602179055508173ffffffffffffffffffffffffffffffffffffffff168173ffffffffffffffffffffffffffffffffffffffff167f8be0079c531659141344cd1fd0a4f28419497f9722a3daafe3b4186f6b6457e060405160405180910390a35050565b61267b806200015f6000396000f3fe6080604052600436106100915760003560e01c8063ab55548411610059578063ab5554841461013b578063b56e535014610164578063e9cc927014610180578063ee85069b146101a9578063f2fde38b146101c557610091565b80631714f2e01461009657806334f5b624146100c1578063454a2ab3146100dd578063715018a6146100f95780638da5cb5b14610110575b600080fd5b3480156100a257600080fd5b506100ab6101ee565b6040516100b891906119fa565b60405180910390f35b6100db60048036038101906100d69190611a8e565b610214565b005b6100f760048036038101906100f29190611ae1565b610423565b005b34801561010557600080fd5b5061010e6109be565b005b34801561011c57600080fd5b506101256109d2565b6040516101329190611b1d565b60405180910390f35b34801561014757600080fd5b50610162600480360381019061015d9190611b38565b6109fc565b005b61017e60048036038101906101799190611b78565b610d84565b005b34801561018c57600080fd5b506101a760048036038101906101a29190611ae1565b6110bd565b005b6101c360048036038101906101be9190611bf0565b6112ed565b005b3480156101d157600080fd5b506101ec60048036038101906101e79190611c57565b6117ac565b005b600460009054906101000a900473ffffffffffffffffffffffffffffffffffffffff1681565b600260005403610259576040517f08c379a000000000000000000000000000000000000000000000000000000000815260040161025090611ce1565b60405180910390fd5b6002600081905550600081116102a4576040517f08c379a000000000000000000000000000000000000000000000000000000000815260040161029b90611d4d565b60405180910390fd5b8273ffffffffffffffffffffffffffffffffffffffff166323b872dd3330856040518463ffffffff1660e01b81526004016102e193929190611d7c565b600060405180830381600087803b1580156102fb57600080fd5b505af115801561030f573d6000803e3d6000fd5b505050506000600560008481526020019081526020016000209050338160020160006101000a81548173ffffffffffffffffffffffffffffffffffffffff021916908373ffffffffffffffffffffffffffffffffffffffff160217905550308160030160006101000a81548173ffffffffffffffffffffffffffffffffffffffff021916908373ffffffffffffffffffffffffffffffffffffffff16021790555060018160050160006101000a81548160ff0219169083151502179055508181600401819055507fa0c6c0d02d86fdacecbaa5fdf5894bab204e31a778250474108540733a9b8d19848433308660405161040d959493929190611db3565b60405180910390a1506001600081905550505050565b600015156007600083815260200190815260200160002060040160009054906101000a900460ff1615150361047a57603c4261045f9190611e35565b60076000838152602001908152602001600020600301819055505b60006006600083815260200190815260200160002060009054906101000a900460ff1690506000600a600084815260200190815260200160002060009054906101000a900473ffffffffffffffffffffffffffffffffffffffff1690508073ffffffffffffffffffffffffffffffffffffffff163373ffffffffffffffffffffffffffffffffffffffff1603610545576040517f08c379a000000000000000000000000000000000000000000000000000000000815260040161053c90611eb5565b60405180910390fd5b60006007600085815260200190815260200160002060050154905060006007600086815260200190815260200160002060060160009054906101000a900473ffffffffffffffffffffffffffffffffffffffff16905060001515841515146105e2576040517f08c379a00000000000000000000000000000000000000000000000000000000081526004016105d990611f21565b60405180910390fd5b6007600086815260200190815260200160002060030154421061063a576040517f08c379a000000000000000000000000000000000000000000000000000000000815260040161063190611f8d565b60405180910390fd5b60006064600a60076000898152602001908152602001600020600501546106619190611fad565b61066b9190612036565b905060008160076000898152602001908152602001600020600501546106919190611e35565b9050803410156106d6576040517f08c379a00000000000000000000000000000000000000000000000000000000081526004016106cd906120d9565b60405180910390fd5b60006007600089815260200190815260200160002060080160003373ffffffffffffffffffffffffffffffffffffffff1673ffffffffffffffffffffffffffffffffffffffff168152602001908152602001600020549050348161073a9190611e35565b600760008a815260200190815260200160002060080160003373ffffffffffffffffffffffffffffffffffffffff1673ffffffffffffffffffffffffffffffffffffffff16815260200190815260200160002081905550348161079d9190611e35565b600760008a815260200190815260200160002060050160008282546107c29190611e35565b92505081905550600073ffffffffffffffffffffffffffffffffffffffff168473ffffffffffffffffffffffffffffffffffffffff161415801561083257503373ffffffffffffffffffffffffffffffffffffffff168473ffffffffffffffffffffffffffffffffffffffff1614155b1561089f5784600960008673ffffffffffffffffffffffffffffffffffffffff1673ffffffffffffffffffffffffffffffffffffffff16815260200190815260200160002060008a815260200190815260200160002060008282546108979190611e35565b925050819055505b34600760008a81526020019081526020016000206005018190555033600760008a815260200190815260200160002060060160006101000a81548173ffffffffffffffffffffffffffffffffffffffff021916908373ffffffffffffffffffffffffffffffffffffffff1602179055506001600760008a8152602001908152602001600020600701546109329190611e35565b600760008a8152602001908152602001600020600701819055506001600760008a815260200190815260200160002060040160006101000a81548160ff0219169083151502179055507ffe788de14adbafd6eb16ceb9e23cfe6f884d70fbabf75247792b6aee68716d5e33346040516109ac9291906120f9565b60405180910390a15050505050505050565b6109c661182f565b6109d060006118ad565b565b6000600160009054906101000a900473ffffffffffffffffffffffffffffffffffffffff16905090565b6007600082815260200190815260200160002060040160009054906101000a900460ff16610a5f576040517f08c379a0000000000000000000000000000000000000000000000000000000008152600401610a569061216e565b60405180910390fd5b6007600082815260200190815260200160002060030154421015610ab8576040517f08c379a0000000000000000000000000000000000000000000000000000000008152600401610aaf906121da565b60405180910390fd5b6007600082815260200190815260200160002060060160009054906101000a900473ffffffffffffffffffffffffffffffffffffffff1673ffffffffffffffffffffffffffffffffffffffff163373ffffffffffffffffffffffffffffffffffffffff1614610b5c576040517f08c379a0000000000000000000000000000000000000000000000000000000008152600401610b5390612246565b60405180910390fd5b6000600a905060006064826007600086815260200190815260200160002060050154610b889190611fad565b610b929190612036565b90506000816007600086815260200190815260200160002060050154610bb89190612266565b90508473ffffffffffffffffffffffffffffffffffffffff166323b872dd3033876040518463ffffffff1660e01b8152600401610bf793929190611d7c565b600060405180830381600087803b158015610c1157600080fd5b505af1158015610c25573d6000803e3d6000fd5b50505050610c316109d2565b73ffffffffffffffffffffffffffffffffffffffff166108fc839081150290604051600060405180830381858888f19350505050158015610c76573d6000803e3d6000fd5b506007600085815260200190815260200160002060010160009054906101000a900473ffffffffffffffffffffffffffffffffffffffff1673ffffffffffffffffffffffffffffffffffffffff166108fc829081150290604051600060405180830381858888f19350505050158015610cf3573d6000803e3d6000fd5b507f4f9ede903e5c240768a78542f08810a42190e65455170f1864e4257e3ee31d5f6007600086815260200190815260200160002060060160009054906101000a900473ffffffffffffffffffffffffffffffffffffffff1660076000878152602001908152602001600020600501548385604051610d75949392919061229a565b60405180910390a15050505050565b600260005403610dc9576040517f08c379a0000000000000000000000000000000000000000000000000000000008152600401610dc090611ce1565b60405180910390fd5b600260008190555060006005600084815260200190815260200160002090508060040154341015610e2f576040517f08c379a0000000000000000000000000000000000000000000000000000000008152600401610e2690612351565b60405180910390fd5b6006600084815260200190815260200160002060009054906101000a900460ff16610e8f576040517f08c379a0000000000000000000000000000000000000000000000000000000008152600401610e86906123bd565b60405180910390fd5b6000600a905060006064828460040154610ea99190611fad565b610eb39190612036565b90506000818460040154610ec79190612266565b905060003390508460020160009054906101000a900473ffffffffffffffffffffffffffffffffffffffff1673ffffffffffffffffffffffffffffffffffffffff166108fc839081150290604051600060405180830381858888f19350505050158015610f38573d6000803e3d6000fd5b50610f416109d2565b73ffffffffffffffffffffffffffffffffffffffff166108fc849081150290604051600060405180830381858888f19350505050158015610f86573d6000803e3d6000fd5b508573ffffffffffffffffffffffffffffffffffffffff166323b872dd308388600101546040518463ffffffff1660e01b8152600401610fc8939291906123fe565b600060405180830381600087803b158015610fe257600080fd5b505af1158015610ff6573d6000803e3d6000fd5b50505050808560030160006101000a81548173ffffffffffffffffffffffffffffffffffffffff021916908373ffffffffffffffffffffffffffffffffffffffff1602179055507ff0a10cc5b12e05779f21db5f1c4a84aa2452a961d68ceaafe16f7d43dbb5beb38686600101548760020160009054906101000a900473ffffffffffffffffffffffffffffffffffffffff1684896004015487896040516110a49796959493929190612435565b60405180910390a1505050505060016000819055505050565b6007600082815260200190815260200160002060040160009054906101000a900460ff16611120576040517f08c379a00000000000000000000000000000000000000000000000000000000081526004016111179061216e565b60405180910390fd5b6007600082815260200190815260200160002060030154421015611179576040517f08c379a0000000000000000000000000000000000000000000000000000000008152600401611170906121da565b60405180910390fd5b6000600960003373ffffffffffffffffffffffffffffffffffffffff1673ffffffffffffffffffffffffffffffffffffffff168152602001908152602001600020600083815260200190815260200160002054905060008111611211576040517f08c379a0000000000000000000000000000000000000000000000000000000008152600401611208906124f0565b60405180910390fd5b6000600960003373ffffffffffffffffffffffffffffffffffffffff1673ffffffffffffffffffffffffffffffffffffffff1681526020019081526020016000206000848152602001908152602001600020819055503373ffffffffffffffffffffffffffffffffffffffff166108fc829081150290604051600060405180830381858888f193505050501580156112ad573d6000803e3d6000fd5b507f24c76ad4ad2879d6e371d43a9d8d0b5805734187e5499873e2e5f5e8731f57168233836040516112e193929190612510565b60405180910390a15050565b600260005403611332576040517f08c379a000000000000000000000000000000000000000000000000000000000815260040161132990611ce1565b60405180910390fd5b60026000819055506000821161137d576040517f08c379a000000000000000000000000000000000000000000000000000000000815260040161137490611d4d565b60405180910390fd5b8373ffffffffffffffffffffffffffffffffffffffff166323b872dd3330866040518463ffffffff1660e01b81526004016113ba93929190611d7c565b600060405180830381600087803b1580156113d457600080fd5b505af11580156113e8573d6000803e3d6000fd5b5050505033600a600085815260200190815260200160002060006101000a81548173ffffffffffffffffffffffffffffffffffffffff021916908373ffffffffffffffffffffffffffffffffffffffff1602179055508015611606576040518060c001604052808573ffffffffffffffffffffffffffffffffffffffff1681526020018481526020013373ffffffffffffffffffffffffffffffffffffffff1681526020013073ffffffffffffffffffffffffffffffffffffffff168152602001838152602001600115158152506005600085815260200190815260200160002060008201518160000160006101000a81548173ffffffffffffffffffffffffffffffffffffffff021916908373ffffffffffffffffffffffffffffffffffffffff1602179055506020820151816001015560408201518160020160006101000a81548173ffffffffffffffffffffffffffffffffffffffff021916908373ffffffffffffffffffffffffffffffffffffffff16021790555060608201518160030160006101000a81548173ffffffffffffffffffffffffffffffffffffffff021916908373ffffffffffffffffffffffffffffffffffffffff1602179055506080820151816004015560a08201518160050160006101000a81548160ff02191690831515021790555090505060016006600085815260200190815260200160002060006101000a81548160ff02191690831515021790555061175f565b826007600085815260200190815260200160002060000181905550336007600085815260200190815260200160002060010160006101000a81548173ffffffffffffffffffffffffffffffffffffffff021916908373ffffffffffffffffffffffffffffffffffffffff16021790555060006007600085815260200190815260200160002060040160006101000a81548160ff02191690831515021790555081600760008581526020019081526020016000206005018190555060006007600085815260200190815260200160002060060160006101000a81548173ffffffffffffffffffffffffffffffffffffffff021916908373ffffffffffffffffffffffffffffffffffffffff1602179055506000600760008581526020019081526020016000206007018190555060006006600085815260200190815260200160002060006101000a81548160ff0219169083151502179055505b7fa0c6c0d02d86fdacecbaa5fdf5894bab204e31a778250474108540733a9b8d198484333086604051611796959493929190611db3565b60405180910390a1600160008190555050505050565b6117b461182f565b600073ffffffffffffffffffffffffffffffffffffffff168173ffffffffffffffffffffffffffffffffffffffff1603611823576040517f08c379a000000000000000000000000000000000000000000000000000000000815260040161181a906125b9565b60405180910390fd5b61182c816118ad565b50565b611837611973565b73ffffffffffffffffffffffffffffffffffffffff166118556109d2565b73ffffffffffffffffffffffffffffffffffffffff16146118ab576040517f08c379a00000000000000000000000000000000000000000000000000000000081526004016118a290612625565b60405180910390fd5b565b6000600160009054906101000a900473ffffffffffffffffffffffffffffffffffffffff16905081600160006101000a81548173ffffffffffffffffffffffffffffffffffffffff021916908373ffffffffffffffffffffffffffffffffffffffff1602179055508173ffffffffffffffffffffffffffffffffffffffff168173ffffffffffffffffffffffffffffffffffffffff167f8be0079c531659141344cd1fd0a4f28419497f9722a3daafe3b4186f6b6457e060405160405180910390a35050565b600033905090565b600073ffffffffffffffffffffffffffffffffffffffff82169050919050565b6000819050919050565b60006119c06119bb6119b68461197b565b61199b565b61197b565b9050919050565b60006119d2826119a5565b9050919050565b60006119e4826119c7565b9050919050565b6119f4816119d9565b82525050565b6000602082019050611a0f60008301846119eb565b92915050565b600080fd5b6000611a258261197b565b9050919050565b611a3581611a1a565b8114611a4057600080fd5b50565b600081359050611a5281611a2c565b92915050565b6000819050919050565b611a6b81611a58565b8114611a7657600080fd5b50565b600081359050611a8881611a62565b92915050565b600080600060608486031215611aa757611aa6611a15565b5b6000611ab586828701611a43565b9350506020611ac686828701611a79565b9250506040611ad786828701611a79565b9150509250925092565b600060208284031215611af757611af6611a15565b5b6000611b0584828501611a79565b91505092915050565b611b1781611a1a565b82525050565b6000602082019050611b326000830184611b0e565b92915050565b60008060408385031215611b4f57611b4e611a15565b5b6000611b5d85828601611a43565b9250506020611b6e85828601611a79565b9150509250929050565b60008060408385031215611b8f57611b8e611a15565b5b6000611b9d85828601611a79565b9250506020611bae85828601611a43565b9150509250929050565b60008115159050919050565b611bcd81611bb8565b8114611bd857600080fd5b50565b600081359050611bea81611bc4565b92915050565b60008060008060808587031215611c0a57611c09611a15565b5b6000611c1887828801611a43565b9450506020611c2987828801611a79565b9350506040611c3a87828801611a79565b9250506060611c4b87828801611bdb565b91505092959194509250565b600060208284031215611c6d57611c6c611a15565b5b6000611c7b84828501611a43565b91505092915050565b600082825260208201905092915050565b7f5265656e7472616e637947756172643a207265656e7472616e742063616c6c00600082015250565b6000611ccb601f83611c84565b9150611cd682611c95565b602082019050919050565b60006020820190508181036000830152611cfa81611cbe565b9050919050565b7f5072696365206d757374206265206174206c6561737420312077656900000000600082015250565b6000611d37601c83611c84565b9150611d4282611d01565b602082019050919050565b60006020820190508181036000830152611d6681611d2a565b9050919050565b611d7681611a58565b82525050565b6000606082019050611d916000830186611b0e565b611d9e6020830185611b0e565b611dab6040830184611d6d565b949350505050565b600060a082019050611dc86000830188611b0e565b611dd56020830187611d6d565b611de26040830186611b0e565b611def6060830185611b0e565b611dfc6080830184611d6d565b9695505050505050565b7f4e487b7100000000000000000000000000000000000000000000000000000000600052601160045260246000fd5b6000611e4082611a58565b9150611e4b83611a58565b9250828201905080821115611e6357611e62611e06565b5b92915050565b7f4f776e65722073686f756c64206e6f7420746865206269640000000000000000600082015250565b6000611e9f601883611c84565b9150611eaa82611e69565b602082019050919050565b60006020820190508181036000830152611ece81611e92565b9050919050565b7f4e6674206973206e6f7420666f722061756374696f6e2e000000000000000000600082015250565b6000611f0b601783611c84565b9150611f1682611ed5565b602082019050919050565b60006020820190508181036000830152611f3a81611efe565b9050919050565b7f41756374696f6e20616c726561647920656e6465640000000000000000000000600082015250565b6000611f77601583611c84565b9150611f8282611f41565b602082019050919050565b60006020820190508181036000830152611fa681611f6a565b9050919050565b6000611fb882611a58565b9150611fc383611a58565b9250817fffffffffffffffffffffffffffffffffffffffffffffffffffffffffffffffff0483118215151615611ffc57611ffb611e06565b5b828202905092915050565b7f4e487b7100000000000000000000000000000000000000000000000000000000600052601260045260246000fd5b600061204182611a58565b915061204c83611a58565b92508261205c5761205b612007565b5b828204905092915050565b7f496e6372656d656e74656420616d6f756e742073686f756c64206265206d617860008201527f696d756d00000000000000000000000000000000000000000000000000000000602082015250565b60006120c3602483611c84565b91506120ce82612067565b604082019050919050565b600060208201905081810360008301526120f2816120b6565b9050919050565b600060408201905061210e6000830185611b0e565b61211b6020830184611d6d565b9392505050565b7f426964206e6f7420737461727465640000000000000000000000000000000000600082015250565b6000612158600f83611c84565b915061216382612122565b602082019050919050565b600060208201905081810360008301526121878161214b565b9050919050565b7f41756374696f6e206e6f7420656e646564000000000000000000000000000000600082015250565b60006121c4601183611c84565b91506121cf8261218e565b602082019050919050565b600060208201905081810360008301526121f3816121b7565b9050919050565b7f6e6f742077696e6e657200000000000000000000000000000000000000000000600082015250565b6000612230600a83611c84565b915061223b826121fa565b602082019050919050565b6000602082019050818103600083015261225f81612223565b9050919050565b600061227182611a58565b915061227c83611a58565b925082820390508181111561229457612293611e06565b5b92915050565b60006080820190506122af6000830187611b0e565b6122bc6020830186611d6d565b6122c96040830185611d6d565b6122d66060830184611d6d565b95945050505050565b7f4e6f7420656e6f75676820657468657220746f20636f7665722061736b696e6760008201527f2070726963650000000000000000000000000000000000000000000000000000602082015250565b600061233b602683611c84565b9150612346826122df565b604082019050919050565b6000602082019050818103600083015261236a8161232e565b9050919050565b7f4e4654206973206e6f7420666f72206469726563744275790000000000000000600082015250565b60006123a7601883611c84565b91506123b282612371565b602082019050919050565b600060208201905081810360008301526123d68161239a565b9050919050565b60006123e8826119c7565b9050919050565b6123f8816123dd565b82525050565b60006060820190506124136000830186611b0e565b61242060208301856123ef565b61242d6040830184611d6d565b949350505050565b600060e08201905061244a600083018a611b0e565b6124576020830189611d6d565b61246460408301886123ef565b61247160608301876123ef565b61247e6080830186611d6d565b61248b60a0830185611d6d565b61249860c0830184611d6d565b98975050505050505050565b7f4e6f20726566756e640000000000000000000000000000000000000000000000600082015250565b60006124da600983611c84565b91506124e5826124a4565b602082019050919050565b60006020820190508181036000830152612509816124cd565b9050919050565b60006060820190506125256000830186611d6d565b6125326020830185611b0e565b61253f6040830184611d6d565b949350505050565b7f4f776e61626c653a206e6577206f776e657220697320746865207a65726f206160008201527f6464726573730000000000000000000000000000000000000000000000000000602082015250565b60006125a3602683611c84565b91506125ae82612547565b604082019050919050565b600060208201905081810360008301526125d281612596565b9050919050565b7f4f776e61626c653a2063616c6c6572206973206e6f7420746865206f776e6572600082015250565b600061260f602083611c84565b915061261a826125d9565b602082019050919050565b6000602082019050818103600083015261263e81612602565b905091905056fea2646970667358221220e8c54bfd0d632603322ea108e600f9b7f403f898e532e43c7bb9225220cd896564736f6c63430008100033",
  "immutableReferences": {},
  "source": "// SPDX-License-Identifier: MIT\npragma solidity ^0.8.13;\n\nimport \"@openzeppelin/contracts/token/ERC721/ERC721.sol\";\nimport \"@openzeppelin/contracts/security/ReentrancyGuard.sol\";\nimport \"@openzeppelin/contracts/access/Ownable.sol\";\n\ncontract NftMarketplace is ReentrancyGuard, Ownable{\n\n    address payable private _marketOwner;\n    address private _owner;\n    ERC721 public nfts;\n    \n   \n    mapping(uint256 => NFT) private _idToNFT;\n    mapping(uint256 => bool) private isFixedPrice;\n    mapping(uint256 => Auction) private _idAuction;\n    mapping(uint256 => Auction[]) private bidParticipatorList;\n    mapping(address => mapping(uint256 => uint256)) bidRefunds;\n    mapping(uint256 => address) private _owners;\n\n\n    struct NFT {\n        address nftContract;\n        uint256 tokenId;\n        address payable seller;\n        address payable owner;\n        uint256 price;\n        bool listed;\n    }\n    //Listing event\n    event NFTListed(\n        address nftContract,\n        uint256 tokenId,\n        address seller,\n        address owner,\n        uint256 price\n    );\n    //Buy nft event\n    event Nftbought(\n        address nftContract,\n        uint256 tokenId,  \n        address buyer, \n        address seller,\n        uint256 price,\n        uint256 PayToSellerOfNft,\n        uint256 adminRoyalty\n    );\n    \n    //nft auction event \n    event Auctionbid(\n        address _creator, \n        uint256 amount\n    );\n\n    event BidWithdraw(uint256 tokenIdHash, address bidder, uint256 amount);\n\n    //nft bid event\n    event bidEnd(\n        address highestBid,\n        uint256 highestbidder,\n        uint256 bidPayToSellerOfNft,\n        uint256 bidAdminRoyalty\n    );\n    constructor() {\n        _owner = payable(msg.sender);\n    }\n    //Auction struct\n    struct Auction {\n        uint256 tokenId;\n        address seller;\n        uint256 startTime;\n        uint256 endTime;\n        bool isFirstBid;\n        uint256 highestBid;\n        address highestBidder;\n        uint256 bidCount;\n        mapping(address => uint) userBid;\n    }\n    Auction[] private auctions;\n\n    //List Nft\n    function listNft(address _nftContract, uint256 _tokenId, uint256 _price, bool isDirectBuy) public payable nonReentrant {\n       require(_price > 0, \"Price must be at least 1 wei\");\n       \n        IERC721(_nftContract).transferFrom(msg.sender, address(this), _tokenId);\n\n        _owners[_tokenId] = msg.sender;\n        // address Myowner = _owners[_tokenId];\n\n        if(isDirectBuy){\n            _idToNFT[_tokenId] = NFT(\n\n            _nftContract,\n            _tokenId, \n            payable(msg.sender),\n            payable(address(this)),\n            _price,\n            true\n        );\n        isFixedPrice[_tokenId] = true;\n        }\n        else{\n        _idAuction[_tokenId].tokenId = _tokenId;\n        _idAuction[_tokenId].seller= msg.sender;\n        _idAuction[_tokenId].isFirstBid = false;\n        _idAuction[_tokenId].highestBid =  _price;\n        _idAuction[_tokenId].highestBidder = address(0);\n        _idAuction[_tokenId].bidCount = 0;\n        isFixedPrice[_tokenId] = false;\n        }\n        emit NFTListed(_nftContract, _tokenId, msg.sender, address(this), _price);\n  }\n\n    //Buy NFT\n    function directBuyNft(uint256 _tokenId, address _nftContract) public payable nonReentrant{\n        NFT storage nft = _idToNFT[_tokenId];\n        require(msg.value >= nft.price, \"Not enough ether to cover asking price\");\n        require(isFixedPrice[_tokenId] , \"NFT is not for directBuy\"); //true\n\n        uint256 adminRoyaltyPercentage = 10;\n        uint256 adminRoyalty = nft.price * (adminRoyaltyPercentage) / 100;\n        uint256 PayToSellerOfNft = nft.price - adminRoyalty;\n        \n        address payable buyer = payable(msg.sender);\n\n        payable(nft.seller).transfer(PayToSellerOfNft);\n        payable(owner()).transfer(adminRoyalty);\n      \n        IERC721(_nftContract).transferFrom(address(this), buyer, nft.tokenId);\n        nft.owner = buyer;\n    \n        emit Nftbought(_nftContract, nft.tokenId, nft.seller, buyer, nft.price, PayToSellerOfNft, adminRoyalty);\n    }\n\n\n    //Resell nft\n\n    function resellNft(address _nftContract, uint256 _tokenId, uint256 _price) public payable nonReentrant{\n        require(_price > 0, \"Price must be at least 1 wei\");\n   \n        IERC721(_nftContract).transferFrom(msg.sender, address(this), _tokenId);\n\n        NFT storage nft = _idToNFT[_tokenId];\n        \n        nft.seller = payable(msg.sender);\n        nft.owner = payable(address(this));\n        nft.listed = true;\n        nft.price = _price;\n\n        emit NFTListed(_nftContract, _tokenId, msg.sender, address(this), _price);\n    }\n    \n    //start bid\n    //Bid nft\n    function bid(uint256 _tokenId)public payable {\n     \n        if( _idAuction[_tokenId].isFirstBid == false) { \n            _idAuction[_tokenId].endTime = block.timestamp+60; \n        }\n        bool count = isFixedPrice[_tokenId];\n        address myOwner = _owners[_tokenId];\n        require(msg.sender != myOwner, \"Owner should not the bid\");\n        \n        uint256 highestBid = _idAuction[_tokenId].highestBid;\n        address highestBidder = _idAuction[_tokenId].highestBidder;\n   \n        require(count == false, \"Nft is not for auction.\");\n        require(block.timestamp < _idAuction[_tokenId].endTime, \"Auction already ended\");\n\n        uint256 incremented_amount = (_idAuction[_tokenId].highestBid * 10) /100;\n        uint256 amount =  _idAuction[_tokenId].highestBid + incremented_amount;\n        require( msg.value >= amount, \"Incremented amount should be maximum\");\n\n        \n        uint256 _userPreviousBid =  _idAuction[_tokenId].userBid[msg.sender];\n    \n        _idAuction[_tokenId].userBid[msg.sender] = _userPreviousBid + msg.value;\n        _idAuction[_tokenId].highestBid += _userPreviousBid + msg.value;\n        \n\n        if(highestBidder != address(0) && highestBidder != msg.sender){\n            bidRefunds[highestBidder][_tokenId] += highestBid; // Record the refund that this user can claim\n        }\n       \n        _idAuction[_tokenId].highestBid = msg.value;\n        _idAuction[_tokenId].highestBidder = msg.sender;\n        _idAuction[_tokenId].bidCount = _idAuction[_tokenId].bidCount + 1;\n        _idAuction[_tokenId].isFirstBid = true;\n\n        emit Auctionbid(msg.sender, msg.value);\n    }\n\n    //withdraw\n    function withdrawBidRefunds(uint256 _tokenId) external {\n\n        require(_idAuction[_tokenId].isFirstBid , \"Bid not started\");\n        require(block.timestamp >= _idAuction[_tokenId].endTime, \"Auction not ended\");\n        uint256 refund = bidRefunds[msg.sender][_tokenId];\n        require(refund > 0, \"No refund\");\n\n        bidRefunds[msg.sender][_tokenId] = 0;\n\n        payable(msg.sender).transfer(refund);\n\n        emit BidWithdraw(_tokenId, msg.sender, refund);\n    }\n\n    // Claim Bid\n    function claimBid(address _nftContract, uint256 _tokenId) external {\n        \n        require(_idAuction[_tokenId].isFirstBid , \"Bid not started\");\n        require(block.timestamp >= _idAuction[_tokenId].endTime, \"Auction not ended\");\n        require(msg.sender == _idAuction[_tokenId].highestBidder,\"not winner\");\n\n        uint256 adminRoyaltyPercentage = 10;\n        uint256 adminRoyalty = _idAuction[_tokenId].highestBid * (adminRoyaltyPercentage) / 100;\n        uint256 PayToSellerOfNft = _idAuction[_tokenId].highestBid - adminRoyalty;\n\n        IERC721(_nftContract).transferFrom(address(this), msg.sender,_tokenId);\n        payable(owner()).transfer(adminRoyalty);\n        payable(_idAuction[_tokenId].seller).transfer(PayToSellerOfNft);\n\n        emit bidEnd(_idAuction[_tokenId].highestBidder, _idAuction[_tokenId].highestBid, PayToSellerOfNft, adminRoyalty);   \n    }\n\n}",
  "sourcePath": "/home/alekhya/Desktop/nft-demo/contracts/NftMarketplace.sol",
  "compiler": {
    "name": "solc",
    "version": "0.8.16+commit.07a7930e.Emscripten.clang"
  },
  "schemaVersion": "3.4.9",
  "updatedAt": "2022-10-18T08:34:11.541Z",
  "networkType": "ethereum",
  "devdoc": {
    "kind": "dev",
    "methods": {
      "owner()": {
        "details": "Returns the address of the current owner."
      },
      "renounceOwnership()": {
        "details": "Leaves the contract without owner. It will not be possible to call `onlyOwner` functions anymore. Can only be called by the current owner. NOTE: Renouncing ownership will leave the contract without an owner, thereby removing any functionality that is only available to the owner."
      },
      "transferOwnership(address)": {
        "details": "Transfers ownership of the contract to a new account (`newOwner`). Can only be called by the current owner."
      }
    },
    "version": 1
  },
  "userdoc": {
    "kind": "user",
    "methods": {},
    "version": 1
  }
}